:020000040800F2
:10000000A0060020D1000008F5170008FB1000082A
:1000100000000000000000000000000000000000E0
:10002000000000000000000000000000731800083D
:10003000000000000000000071180008751800089A
:10004000E3000008E3000008E3000008E300000804
:10005000E3000008E3000008E3000008E3000008F4
:10006000E3000008E3000008E3000008E3000008E4
:10007000E3000008E3000008E3000008E3000008D4
:10008000E30000080519000800000000E300000874
:10009000E3000008E3000008E30000080511000881
:1000A000E3000008E3000008E3000008E3000008A4
:1000B000E300000800000000E30000080348854654
:1000C00000F03CF80048004781250008A006002009
:1000D0000448804704480047FEE7FEE7FEE7FEE7E6
:1000E000FEE7FEE791180008BD00000830B50B469A
:1000F000014600202022012409E00D46D5409D4202
:1001000005D31D469540491B254695404019154687
:10011000521E002DF1DC30BDD2B201E00270401C55
:10012000491EFBD270470022F6E710B513460A4677
:1001300004461946FFF7F0FF204610BD064C012586
:10014000064E05E0E36807CC2B430C3C984710347F
:10015000B442F7D3FFF7B6FF88260008A8260008A8
:1001600070B5044600252120005D022803D004203C
:10017000A06301251EE0206800680E2188432168E5
:10018000086020680068400840002168086001207D
:10019000216C8840E16B486001212120015500BF9E
:1001A00000212020015500BF606B002802D02046AE
:1001B000616B8847284670BD78B50346002200244D
:1001C0000020DEE0012696400D6835402C46002CCC
:1001D0007ED04D68022D02D04D68122D15D1D50864
:1001E000AE001D462035A8595507EE0E0F25B54027
:1001F0000646AE4330465607F60E0D69B540284315
:10020000D508AD001E4620367051186856000325EB
:10021000B5400646AE4330460D79AD07AD0F5600EA
:10022000B540284318604D68012D08D04D68022D57
:1002300005D04D68112D02D04D68122D18D1986847
:1002400056000325B5400646AE4330465600CD68FD
:10025000B540284398605868012595400646AE434E
:10026000304610264D6835402D099540284358608A
:10027000D86856000325B5400646AE4330465600C2
:100280008D68B5402843D860012636074D68354053
:10029000B54275D100BF3E4DAD69012635433C4E98
:1002A000B5613546AD69ED07ED0F009500BF00BFA4
:1002B000384D9608B600A85995072E0F0F25B54062
:1002C0000646AE4330460925ED06AB4203D100E0B9
:1002D00056E000250FE0304DAB4201D101250AE088
:1002E0002E4DAB4201D1022505E02D4DAB4201D18F
:1002F000032500E005259607360FB5402843254D18
:100300009608B600A851274D28680546A5432846FB
:10031000012636044D683540B54202D105462543D5
:100320002846204D286068680546A54328460126D2
:1003300076044D683540B54202D10546254328462E
:10034000184D6860A8680546A5432846012636056D
:100350004D683540B54202D1054625432846114D2A
:10036000A860E8680546A5432846012676054D683D
:100370003540B54202D1054625432846094DE8607F
:10038000521C0D68D540002D00D01BE778BD000041
:100390000010024008000140000400480008004826
:1003A000000C00480004014042694A404261704725
:1003B000002A01D0816100E0816270470148006835
:1003C000704700000000002002464120805C202889
:1003D0002FD100BF4020805C012801D1022070474E
:1003E00001234020835400BF2423412083541068FC
:1003F0000068400840001368186010680068012316
:100400001B0398431368186010680068084313685A
:1004100018601068006801231843136818602023CF
:100420004120835400BF00234020835400BF00209C
:10043000D5E70220D3E710B502460B460021412044
:10044000805C20282ED100BF4020805C012801D193
:10045000022010BD01244020845400BF24244120E8
:1004600084541068006840084000146820601068D8
:1004700001680F2424020846A043014618020143E4
:10048000106801601068006801242043146820602F
:1004900020244120845400BF00244020845400BF05
:1004A0000020D6E70220D4E77047704770B50446B5
:1004B0002068856920680668FF20013028400028F0
:1004C0000AD080203040002806D0606C012108430B
:1004D000606408022168C861012080022840002869
:1004E0000AD080203040002806D0606C08210843E4
:1004F0006064C8012168C8610120400228400028CA
:100500000AD080203040002806D0606C02210843C9
:10051000606408022168C861606C0B2108400028F3
:1005200003D0616C204600F01FFF70BD00210C4B12
:1005300002681B689A4211D1094A12685268012365
:10054000DB031A43064B1B685A60BE221143044A60
:10055000126812680A43024B1B681A607047000059
:100560002801002010B50446002C01D1012010BD47
:100570004120005D002805D1002140200155204682
:1005800000F05BF8242141200155206800684008F4
:100590004000216808600F210906606888432168CF
:1005A0000861206880680121C90388432168886048
:1005B000E068012806D10121C903A0680843216829
:1005C000886005E021218902A068084321688860CD
:1005D000E068022802D180022168486020684068F3
:1005E00014490843216848602068C0680121C90394
:1005F00088432168C860616920690843A1690902CC
:1006000008432168C860216AE069084321680860DE
:1006100020680068012108432168086000206064A8
:100620002021412001550020206300214220015556
:1006300000209CE7008000027047704770477047B9
:1006400002480068401C0149086070470000002013
:1006500010B50648006810210843044908600020CE
:1006600000F006F800F017F8002010BD002002404E
:1006700070B5044600F0A6F906467D21C900FFF7D3
:1006800035FD054600F0BEFC00222146501E00F05C
:100690000FF8002070BD704700BFC206D20E0121C6
:1006A0009140024A116000BF7047000000E100E085
:1006B00070B504460D4616462946204601F09CF8C2
:1006C00070BD0000F8B5044600260025012109048C
:1006D0002068084088427AD100275248C06909033F
:1006E000084000280DD100BF4E48C06908434D495D
:1006F000C8610846C06909040840009000BF00BFF7
:10070000012749480068FF2101310840002816D11F
:1007100045480068084344490860FFF74FFE064615
:1007200006E0FFF74BFE801B642801D90320F8BDCB
:100730003D480068FF21013108400028F1D03948C8
:10074000006A0321090208400546002D2DD060688B
:100750000840A84229D03348006A884305463148FA
:10076000006A0121090408432E4908620846006A0C
:100770000121090488432B49086208460562E807FD
:10078000C00F002811D0FFF719FE064607E0FFF75B
:1007900015FE801B2549884201D90320C7E721485F
:1007A000006A022108400028F1D01E48006A032197
:1007B00009028843616808431A490862012F05D17C
:1007C0000846C069090488431649C86100BF2078FB
:1007D000C007C00F002807D01248006B80088000B7
:1007E000A16808430F490863202120680840202899
:1007F00007D10C48006B10218843E1680843094980
:1008000008630121890220680840884207D1054811
:10081000006B402188432169084302490863002096
:1008200085E70000001002400070004088130000BF
:1008300070B504460D4600265D480068C007C00F2D
:10084000A8420ED25A480068400840002843584940
:10085000086008460068C007C00FA84201D0012008
:1008600070BD022120680840022807D15148406825
:10087000F0218843A16808434E4948602078C007AA
:10088000C00F00285FD06068012808D1494800687F
:10089000012149040840002815D10120E0E76068E3
:1008A000022808D143480068012149060840002871
:1008B00009D10120D4E73F48006802210840002800
:1008C00001D10120CCE73B48406880088000616886
:1008D000084338494860FFF771FD06466068012803
:1008E0000FD107E0FFF76AFD801B3349884201D929
:1008F0000320B5E72F4840680C2108400428F1D1B7
:1009000021E0606802280FD107E0FFF757FD801B48
:100910002949884201D90320A2E7264840680C21D2
:1009200008400828F1D10EE007E0FFF747FD801BE3
:100930002149884201D9032092E71E4840680C21D2
:1009400008400028F1D11A480068C007C00FA8422B
:100950000ED9174800684008400028431449086031
:1009600008460068C007C00FA84201D0012077E701
:10097000042120680840042808D10E484068072157
:1009800009028843E16808430A49486000F032F8E8
:1009900008494968F02211400909084A515CC840D9
:1009A000074908600020FFF763FE002058E70000B9
:1009B000002002400010024088130000702600084A
:1009C00068000020014800687047000068000020AF
:1009D00000B5FFF7F7FF05494968072212021140E9
:1009E000090A034A515CC84000BD000000100240E3
:1009F00080260008F0B589B024A001460EC9C06861
:100A000005AC0EC4089025A001460EC9C06801AC13
:100A10000EC404900024002700250026002000902A
:100A2000224844680C202040002827D0042802D007
:100A3000082822D102E01E48009022E00F20800406
:100A40002040800C05A90E5C1848C06A0007000F02
:100A500001A90F5C01200004204001210904884203
:100A600006D139461248FFF741FB7043054602E0C4
:100A7000104835464543009503E000BF0C48009000
:100A800000BF00BF009809B0F0BD000002030405DC
:100A9000060708090A0B0C0D0E0F101001020304C3
:100AA00005060708090A0B0C0D0E0F100010024076
:100AB00000127A0000093D00F8B5044600252078B0
:100AC000C007C00F002871D0F94840680C210840C9
:100AD00004280BD0F64840680840082812D1F44892
:100AE000406801210904084088420BD1F0480068A1
:100AF00001214904084000286BD06068002868D1B3
:100B00000120F8BD00BF6068012807D1E8480068EF
:100B1000012109040843E649086031E060680028C3
:100B20000ED1E3480068012109048843E0490860C8
:100B300008460068012189048843DD4908601FE0F8
:100B4000606805280ED1DA4800680121890408434D
:100B5000D749086008460068012109040843D449C0
:100B600008600DE0D2480068012109048843D0499B
:100B7000086008460068012189048843CC49086060
:100B800000BF6068002812D0FFF718FC054606E099
:100B9000FFF714FC401B642801D90320B1E7C448C7
:100BA00000680121490408400028F1D011E0FFF756
:100BB00005FC054606E0FFF701FC401B642801D94F
:100BC00003209EE7BA480068012149040840002834
:100BD000F1D1022120680840022861D1B448406860
:100BE0000C21084000280BD0B14840680840082874
:100BF0001BD1AF484068012109040840002814D1E6
:100C0000AB48006802210840002804D0E0680128B1
:100C100001D0012075E7A6480068F82188432169C2
:100C2000C9000843A24908603AE0E068002820D0E3
:100C30009F480068012108439D490860FFF7BEFBFB
:100C4000054606E0FFF7BAFB401B022801D9032046
:100C500057E797480068022108400028F2D09448DE
:100C60000068F82188432169C90008439049086059
:100C700016E08F480068400840008D490860FFF783
:100C80009DFB054606E0FFF799FB401B022801D9B2
:100C9000032036E786480068022108400028F2D188
:100CA000082120680840082831D1E069002817D0C1
:100CB0007F48406A012108437D494862FFF77EFB77
:100CC000054606E0FFF77AFB401B022801D9032006
:100CD00017E77748406A022108400028F2D016E062
:100CE0007348406A4008400071494862FFF766FB5C
:100CF000054606E0FFF762FB401B022801D90320EE
:100D0000FFE66B48406A022108400028F2D1042126
:100D100020680840042871D100266548C06989060A
:100D2000084000280DD100BF6148C06908436049F0
:100D3000C8610846C06909040840009000BF00BFB0
:100D400001265C480068FF2101310840002816D1C7
:100D500058480068084357490860FFF72FFB0546CD
:100D600006E0FFF72BFB401B642801D90320C8E6EF
:100D700050480068FF21013108400028F1D000BF31
:100D8000A068012806D14A48006A01210843484961
:100D900008622BE0A06800280CD14548006A400892
:100DA0004000434908620846006A042188434049DC
:100DB00008621BE0A06805280CD13D48006A0421A8
:100DC00008433B4908620846006A01210843384944
:100DD00008620BE03648006A400840003449086267
:100DE0000846006A042188433149086200BFA068B0
:100DF000002813D0FFF7E2FA054608E029E0FFF7E4
:100E0000DDFA401B2C49884201D9032079E62848A5
:100E1000006A022108400028F1D011E0FFF7CEFA65
:100E2000054607E0FFF7CAFA401B2349884201D96B
:100E3000032066E61E48006A022108400028F1D11E
:100E4000012E05D11A48C069310788431849C86185
:100E500000BF10212068084010285FD16069012878
:100E60002CD11348406B04210843114948630846BC
:100E7000406B012108430E494863FFF79FFA05467E
:100E800006E0FFF79BFA401B022801D9032038E651
:100E90000748406B022108400028F2D00448406B0C
:100EA000F8218843A169C90008430149486335E036
:100EB0000010024000700040881300006069401D6F
:100EC00000280FD14E48406B042188434C494863A9
:100ED0000846406BF8218843A169C9000843484986
:100EE00048631BE04648406B04210843444948637B
:100EF0000846406B400840004863FFF75FFA05462C
:100F000006E0FFF75BFA401B022801D90320F8E551
:100F10003B48406B022108400028F2D1206A00289B
:100F20006CD0374840680C210840082864D0206AFB
:100F3000022847D132480068012109068843304918
:100F40000860FFF73BFA054606E0FFF737FA401B5B
:100F5000022801D90320D4E5294800680121490667
:100F600008400028F1D100BF2548C06A00090001EF
:100F7000E16A08432249C862616AA06A08432049BD
:100F800049683D221204914308431D49486000BF4F
:100F90000846006801210906084319490860FFF75F
:100FA0000DFA054606E0FFF709FA401B022801D9B1
:100FB0000320A6E5124800680121490608400028E0
:100FC000F1D01BE00E4800680121090688430C4956
:100FD0000860FFF7F3F9054606E0FFF7EFF9401B5D
:100FE000022801D903208CE5054800680121490643
:100FF00008400028F1D101E0012082E5002080E5D1
:101000000010024070B504462546681E0949884212
:1010100001D901200CE0681E074948610321081F1F
:1010200000F0EAFB002004498861072008610020E5
:1010300070BD0000FFFFFF0000E000E010B50446B7
:10104000002C01D1012010BD3D20005D002805D1FC
:1010500000213C200155204600F00CF802213D20E3
:101060000155211D206800F073FC01213D20015530
:101070000020E8E7704710B50446002C01D101209C
:1010800010BDA069002800D000E000BF6920005D0D
:10109000002805D1002168200155204600F02CF8D9
:1010A000242169200155206800684008400021681B
:1010B0000860204600F05CFD012800D1E0E7606A8E
:1010C000002802D0204600F09BFC206840680921DF
:1010D000C902884321684860206880682A218843C3
:1010E0002168886020680068012108432168086041
:1010F000204600F0FDFCC3E7704701E001F065F811
:10110000FCE7000010B50848006880690721090263
:101110000840002803D00448FFF7C8F902E002485D
:1011200000F062F810BD00002801002070B50546EF
:101130006C6A206840680121C9030843216848603F
:101140000020A16B4863E16B48634120005D60288B
:1011500006D12021412001552046FFF7A5F902E0E4
:101160002046FFF7E3F970BD10B503460A4600219B
:10117000D007C00F002809D0422001434120C05CA5
:1011800028242040282801D0B0200143022010400C
:10119000022809D1442001434120C05C282420407A
:1011A000282801D0B020014304201040042801D198
:1011B000B820014311201040112801D19020014393
:1011C00012201040122801D120200143122010408B
:1011D000122801D1402001431868006888431C6828
:1011E0002060002010BD0000F0B505460026002755
:1011F00000241A48806984B22868806901210904A2
:101200000840060C286880697F2149040840070CC3
:1012100008202040002804D03A463146284600F0F5
:10122000DFFE04202040002802D0284600F020FFE6
:1012300002202040002802D0284600F051FF102054
:101240002040002802D0284600F006FF2020204041
:10125000002802D0284600F02DFFF0BD00540040C9
:1012600001688969022211404908002902D0002141
:101270000268916201688969C907C90F012251405A
:101280005140002904D101688969114302689161C4
:101290007047F8B50446002700250026002000907E
:1012A0004120005D28210840282854D12068806909
:1012B000012109040840070C206880697F21490446
:1012C0000840050C206880688605B60D2068C06857
:1012D000FE2108400090E06802282DD10620284019
:1012E000F11106221140884216D13546A06C401CEF
:1012F000A064A06C022836D10020A06408202168D8
:10130000C86100BF00214020015500BF2A46394670
:101310002046FFF7CAF826E0009D04212046FFF78B
:1013200023FF00BF00214020015500BF2A46394657
:101330002046FFF7BAF816E004212046FFF714FF15
:1013400000BF00214020015500BF2A4639462046F3
:10135000FFF7ABF807E008202168C86100BF002153
:101360004020015500BFF8BD70B504460D46002170
:10137000422001553F48E06200206085606C2843B0
:1013800060644120005D282807D04120005D2928A5
:1013900003D04120005D2A280BD103212046FFF70E
:1013A000E3FE28214120015500202063324860637C
:1013B0000DE007212046FFF7D7FE4120005D6028A1
:1013C00002D0202141200155002020636063206865
:1013D0000068012189030840884215D1206800680F
:1013E0008843216808602548A16B486300BF00213D
:1013F0004020015500BFA06BFEF7B2FE002838D098
:10140000A06B416B884734E0206800680121C90364
:101410000840884215D12068006888432168086028
:101420001648E16B486300BF00214020015500BF12
:10143000E06BFEF795FE00281BD0E06B416B884700
:1014400017E04120005D60280BD12021412001558B
:1014500000BF00214020015500BF2046FFF724F8BF
:1014600007E000BF00214020015500BF2046FFF7E4
:101470005DF870BD0000FFFF951600082D110008F3
:1014800070B504460D461A48E06200202063202112
:1014900041200155002142200155002060630420B5
:1014A0002840002813D02068406AC1B2626A501CEC
:1014B00060621170208D002809D0208D401E20858B
:1014C000608D401E6085606C0421084360640721C4
:1014D0002046FFF749FE10202168C86100BF0021A7
:1014E0004020015500BF2046FFF7A6F870BD000060
:1014F0000000FFFF70B504460D4620202168C8613A
:1015000008202168C86107212046FFF72DFE2068CA
:1015100040680121C9030843216848602068406889
:1015200041490840216848602046FFF799FE20683D
:101530000068012189030840884205D020680068BE
:101540004900084088420BD14120005D212803D189
:10155000A06B0068406802E0E06B0068406860854E
:10156000608D002803D0606C04210843606404206F
:101570002840002813D02068406AC1B2626A501C1B
:1015800060621170208D002809D0208D401E2085BA
:10159000608D401E6085606C0421084360640020FB
:1015A000206300214220015500206063606C002808
:1015B0000CD0616C2046FFF7D7FE4120005D282843
:1015C00031D129462046FFF75BFF2CE0E06A17493E
:1015D00088420DD00846E06220214120015500BF1D
:1015E00000214020015500BF2046FFF725F81AE0F2
:1015F0004120005D22280BD120214120015500BF50
:1016000000214020015500BF2046FFF717F80AE0EF
:1016100020214120015500BF00214020015500BF7D
:101620002046FFF70CF870BD00E800FE0000FFFF49
:1016300010B504460021422001554120005D2928B3
:1016400011D128214120015521202063012120466C
:10165000FFF78AFD00BF00214020015500BF204652
:10166000FEF7EDFF14E04120005D2A2810D128216B
:10167000412001552220206302212046FFF774FDFE
:1016800000BF00214020015500BF2046FEF7D6FFD5
:1016900010BD000070B504460D46164600BF402040
:1016A000005D012801D1022070BD012140200155BB
:1016B00000BF10202840002834D0102030400028DF
:1016C00030D0608D002825D1E06A4906884202D0DA
:1016D000E06A884208D14120005D282804D12946CB
:1016E0002046FFF7CDFE70E0E06A414988420DD008
:1016F0004120005D292809D110202168C8612046B9
:10170000FFF7AEFD2046FFF793FF5EE01020216853
:10171000C8615AE010202168C861606C0421084348
:10172000606452E00420284000281ED0042030408D
:1017300000281AD0608D00280CD02068406AC1B201
:10174000626A501C60621170208D401E2085608D81
:10175000401E6085608D002837D1E06A24498842A8
:1017600033D02046FFF764FF2FE0082028400028F0
:1017700008D008203040002804D029462046FFF732
:1017800088FD22E00220284000281ED002203040A0
:1017900000281AD0608D00280CD0616A481C606255
:1017A000087821688862608D401E6085208D401E0B
:1017B00020850AE0E06A01210906884202D0E06A39
:1017C000002802D12046FFF733FF202028400028C0
:1017D00007D020203040002803D029462046FFF7BC
:1017E00089FE00BF00214020015500BF00205BE7BB
:1017F0000000FFFF7047000010B5002819DA1A4AF0
:1018000003071B0F083B9B089B00D2588307DC0E85
:10181000FF23A3409A438B071B0E8407E40EA340CB
:101820001A43114B0407240F083CA408A4001A51C2
:1018300018E00E4A03231B02D21883089B00D258DB
:101840008307DC0EFF23A3409A438B071B0E8407FC
:10185000E40EA3401A43054B032424021B198408F9
:10186000A4001A5110BD00001CED00E000E100E0F2
:101870007047704710B5FEF7E3FE04480068002883
:1018800002D002480068804710BD0000040000201C
:101890001948006801210843174908600846406854
:1018A0001649084014494860084600681449084031
:1018B00011490860084600680121890488430E49DF
:1018C0000860084640683F21090488430A49486087
:1018D0000846C06A00090001C8620846006BFF2183
:1018E00054318843044908630846406B400840006F
:1018F0004863002088607047001002400CB8FFF871
:10190000FFFFF6FE10B500240F4800680069C0070D
:10191000C00F012148404840002813D000BF0AE012
:10192000A0000A490858002803D0A100074A5058CF
:101930008047601CC4B2032CF2DB0120C043024983
:101940000968086110BD00006C000020AC00002098
:1019500010B500220268244B984206D001239B0751
:10196000984202D0214B984205D170241346A343DC
:101970001A464B681A431C4B984212D001239B070E
:1019800098420ED0194B98420BD0194B984208D070
:10199000184B984205D0184B984202D0174B9842EA
:1019A00006D1032424021346A3431A46CB681A43E4
:1019B00080241346A3434C6923431A4602608B6874
:1019C000C3620B688362084B984208D0094B984267
:1019D00005D0094B984202D0084B984201D10B69BF
:1019E00003630123436110BD002C0140000400404B
:1019F00000200040004001400044014000480140F8
:101A0000818CC907C90F002908D0016849680122E3
:101A100052049143826A1143026851600222416A72
:101A20001140002907D001684968D2039143C26A76
:101A30001143026851600422416A1140002907D015
:101A40000168496812049143026B114302685160B6
:101A50000822416A1140002907D001684968120331
:101A60009143426B1143026851601022416A114058
:101A7000002907D00168896812029143826B1143E3
:101A8000026891602022416A1140002907D0016854
:101A9000896812029143C26B11430268916040222F
:101AA000416A1140002915D00168496892039143A9
:101AB000026C11430268516001221205016C9142CF
:101AC00008D101684968032252059143426C1143D1
:101AD000026851608022416A1140002907D00168E4
:101AE000496812039143826C114302685160704748
:101AF00038B5044600250020E066FEF75FFC054689
:101B000019492068884223D12068006808210840CC
:101B100008280BD115482B46002289040090204646
:101B200000F018F9002801D0032038BD20680068B3
:101B30000421084004280BD10C482B46002209053B
:101B40000090204600F006F9002801D00320ECE7C1
:101B50002021692001556A20015500BF002168201D
:101B6000015500BF0020E0E700380140FFFFFF0102
:101B7000FEB50446002510260027002002900190A3
:101B80002169A068084361690843E1690843054683
:101B90002068006868490840284321680860206878
:101BA0004068032109038843E168084321684860CD
:101BB000216AA06908430546206880680B21090254
:101BC000884328432168886000BF5C4920688842B8
:101BD00017D15B48006B8007800F002806D00128D2
:101BE00008D0022808D0032808D101E0002607E029
:101BF000022605E0042603E0082601E0102600BFC7
:101C000006E050492068884201D1002600E01026F5
:101C100000BF0121C903E069884249D1042E20D0C8
:101C200004DC002E07D0022E32D111E0082E25D080
:101C3000102E2DD12DE0FEF7CBFE40006168490843
:101C4000401800906168FEF751FA80B2029023E0DC
:101C500061684A083C4BD018FEF748FA80B20290FF
:101C60001AE0FEF7C7FE400061684908401800907E
:101C70006168FEF73BFA80B202900DE061684A08A5
:101C800001231B04D018FEF731FA80B2029003E062
:101C900000BF0120019000BF00BF2C4902980840FE
:101CA000074602980007400F07432068C76040E0DE
:101CB000042E21D004DC002E07D0022E34D111E0F6
:101CC000082E26D0102E2FD12FE0FEF781FE61685E
:101CD0004908401800906168FEF708FA80B2216850
:101CE000C86025E061684A08194BD018FEF7FEF974
:101CF00080B22168C8601BE0FEF77CFE616849087D
:101D0000401800906168FEF7F1F980B22168C86060
:101D10000EE061684A080123DB03D018FEF7E6F9FC
:101D200080B22168C86003E000BF0120019000BFBD
:101D300000BF0198FEBD0000F369FFFF00380140BD
:101D400000100240004400400024F400F0FF0000B6
:101D500000127A00FFB581B004460D4617460A9E70
:101D600024E0701C002821D0002E05D0FEF726FBB1
:101D70000499401AB04219D920680068FF21A131A6
:101D80008843216808602068806840084000216816
:101D900088602021692001556A20015500BF00217B
:101DA0006820015500BF032005B0F0BD2068C06960
:101DB0002840A84201D1012000E00020B842D0D044
:101DC0000020F1E702E008C8121F08C1002AFAD17A
:101DD00070477047002001E001C1121F002AFBD1AB
:101DE000704700B595B0302109A8FEF79CF9002096
:101DF000059006900790089014216846FEF793F925
:101E00000220099001200C9010200D9002201190CA
:101E1000002112910321C90413910021149109A8F2
:101E2000FEF74AFE0720059002200690002007904A
:101E3000012080020890012105A8FEF7F9FC21206D
:101E400000900020029003906846FEF73BFC15B01E
:101E500000BD0000F0B585B006460C460027002EF8
:101E60001CD125462C4668680190287A0290287873
:101E7000142148430C4940184068009028781421E8
:101E800048430949401800690390297814225143B6
:101E9000054A50586946FEF78FF900E000BF00BFC1
:101EA000384605B0F0BD0000BC25000810B586B06E
:101EB000002400BF2F4840690121490408432D49EF
:101EC000486108464069012149040840009000BF6C
:101ED00000BF00BF274840694900084325494861C1
:101EE00008464069012189040840009000BF00BFF6
:101EF00000BF20484069490008431E494861084620
:101F000040690121C9040840009000BF00BF00BF24
:101F10001848406949000843164948610846406925
:101F2000012109050840009000BF00BF00BF1DE06F
:101F300014206043104940188068029014206043C8
:101F4000401840680190142060434018C068039016
:101F50001420604340180069049014216143064A2C
:101F6000505801A9FEF728F9601CC4B2092CDFD330
:101F700006B010BD00100240BC25000870B5044634
:101F80000D46002D0CD114226243144BD2189288B6
:101F900091B21422624398580022FEF709FA1BE01E
:101FA000012D0CD1142262430C4BD218928891B2AD
:101FB0001422624398580122FEF7FAF90CE0022D30
:101FC0000AD114226243054BD218928891B214228E
:101FD00062439858FEF7E8F970BD0000BC25000880
:101FE000F0B50B460021184D04682D68AC422AD18B
:101FF00008240568EC61002B0CD10024134D2C70D3
:1020000000BF04E00024124D6C544C1CE1B21429B2
:10201000F8DB10E00124224300240E4D2C700468EC
:10202000A46901252C430568AC610468A4690225F4
:102030002C430568AC61054C26782478641C034F5A
:102040003C70034CA255F0BD280100201E0000206A
:10205000740100201D000020044A016812689142AA
:1020600002D110210268D1617047000028010020D0
:102070000D4A01681268914215D10168496A0B4AFC
:102080000B4B1B78D1540A490978142905DA084901
:102090000978491C064A117002E00021044A1170B7
:1020A00004210268D16170472801002074010020DA
:1020B0001E0000200021074B02681B689A4207D1CE
:1020C0000022054B1A70054B1A7020220368DA6152
:1020D00070470000280100201E0000201D00002085
:1020E0000B4A01681268914211D10A490A4A1278D2
:1020F000895C0268916208490978012904DA064975
:102100000978491C044A117002210268D1617047A4
:1021100028010020090000201D00002038B50024FF
:1021200000BF1D48C0690121490508431A49C8611B
:102130000846C069012149050840009000BF00BF62
:1021400016481749086017484860162114488160EE
:102150000121C1600021016141618161C1610162B0
:10216000FEF700FA00210E48FEF72EF900210C4878
:10217000FEF761F9002201211720FEF799FA1720D6
:10218000FEF78AFABE200443054800680068204331
:1021900003490968086038BD00100240005400403F
:1021A000280100200E09002010B5FEF751FAFFF7B4
:1021B00018FEFFF77BFE00F009F8FFF7AFFF0021E4
:1021C000E120400200F06EF810BD704738B50024E1
:1021D00000BF05E00020A100204A5050601CC4B29E
:1021E000032CF7DB00BF1E48C069102108431C49BF
:1021F000C8610846C06910210840009000BF00BFB8
:10220000184819490860FEF7E3FB05461749FDF732
:102210006DFF154948600021134881607D21090147
:10222000C16080218161FEF709FF01221146112062
:10223000FEF73EFA1120FEF72FFA0B480068C0683F
:102240000121084308490968C86007480068006818
:102250000121084304490968086038BDAC0000202A
:1022600000100240001000406C00002040420F00AF
:102270000146002209480078032805DA074800785B
:102280008000074B195001E0032070470348007895
:10229000401C024B18701046F7E7000008000020B1
:1022A000AC00002038B504460D4600BF16488069D2
:1022B0000121890308431449886108468069012186
:1022C00089030840009000BF00BF10481049086013
:1022D0000846446000218160C16001610C214161B8
:1022E00000218161C16101620020094948620846FC
:1022F000FEF7C1FE06480068006801210843044952
:102300000968086038BD0000001002400038014034
:10231000B800002010B500F0BDF810BD0EB50121C9
:1023200068460170002001906946FFF793FD002187
:1023300068460170002001906946FFF78BFD03217C
:10234000684601700120019069460020FFF782FD78
:102350000221684601700120019069460020FFF7C4
:1023600079FD01210220FFF709FE00210320FFF77C
:1023700005FE0EBD10B500F08DF810BD0EB50121A3
:1023800068460170002001906946FFF763FD002157
:1023900068460170002001906946FFF75BFD03214C
:1023A000684601700120019069460020FFF752FD48
:1023B0000221684601700120019069460020FFF764
:1023C00049FD01210320FFF7D9FD00210220FFF77D
:1023D000D5FD0EBD10B500F05DF810BD0EB50321A2
:1023E00068460170002001906946FFF733FD002127
:1023F00068460170002001906946FFF72BFD02211D
:10240000684601700120019069460020FFF722FD17
:102410000121684601700120019069460020FFF704
:1024200019FD01210220FFF7A9FD00210120FFF77E
:10243000A5FD0EBD10B500F02DF810BD0EB50321A1
:1024400068460170002001906946FFF703FD0021F6
:1024500068460170002001906946FFF7FBFC0221ED
:10246000684601700120019069460020FFF7F2FCE8
:102470000121684601700120019069460020FFF7A4
:10248000E9FC01210846FFF779FD00210220FFF752
:1024900075FD0EBD0EB50321684601700020019048
:1024A0006946FFF7D7FC02216846017000200190C1
:1024B0006946FFF7CFFC01216846017000200190BA
:1024C0006946FFF7C7FC00216846017000200190B3
:1024D0006946FFF7BFFC0EBD10B500240548FFF7A5
:1024E000C7FE002801D0032010BD0020024908804B
:1024F0002046F9E7FD2400082000002010B51C4804
:102500000078012805DA1A480078401C184908703C
:102510002CE018480088042822D217480088154962
:1025200009780841C007C00F124909880901134AF8
:102530008918097A884206D10E4909880901891843
:10254000C868804706E00B49098809010B4A8918C9
:102550004868804707480088401C0649088002E018
:1025600000200449088000200149087010BD0000C7
:1025700064000020660000202000002024000020CD
:1025800000BF72B600BFFFF70FFE00BF62B600BF0C
:1025900000F004F8FFF7A0FF00BFFEE7FF200130C6
:1025A00004498860002048600860C86002480861EB
:1025B00070470000880100209C01002000000000FE
:1025C000000000000000000000000000000000000B
:1025D00000000048100000000000000000000000A3
:1025E0000000000000000048200000000000000083
:1025F000000000000000000000000048080000008B
:10260000000000000000000000000000000400487E
:1026100002000000000000000100000000000000B7
:10262000000000480002000002000000000000005E
:10263000000000000000004800040000020000004C
:1026400000000000000000000004004840000000FE
:10265000120000000000000000000000000400481C
:1026600080000000120000000000000000000000D8
:102670000000000000000000010203040607080932
:102680000000000001020304A8260008000000204A
:102690006C000000C41D0008142700086C00002016
:1026A00034060000D41D00080000000000000000F7
:1026B00000E02E000000000000000000000000000C
:1026C000000000000000000000000000000000000A
:1026D00015230008010000001D2300080000000071
:1026E00075230008010000007D23000800000000A1
:1026F000D523000801000000DD23000800000000D1
:1027000035240008010000003D24000800000000FE
:0427100000127A0039
:04000005080000BD32
:00000001FF
